{
  "contractName": "BasicERC20BurnableToken",
  "abi": [
    {
      "inputs": [
        {
          "internalType": "uint256",
          "name": "initialSupply",
          "type": "uint256"
        }
      ],
      "stateMutability": "nonpayable",
      "type": "constructor"
    },
    {
      "anonymous": false,
      "inputs": [
        {
          "indexed": true,
          "internalType": "address",
          "name": "owner",
          "type": "address"
        },
        {
          "indexed": true,
          "internalType": "address",
          "name": "spender",
          "type": "address"
        },
        {
          "indexed": false,
          "internalType": "uint256",
          "name": "value",
          "type": "uint256"
        }
      ],
      "name": "Approval",
      "type": "event"
    },
    {
      "anonymous": false,
      "inputs": [
        {
          "indexed": true,
          "internalType": "address",
          "name": "burner",
          "type": "address"
        },
        {
          "indexed": false,
          "internalType": "uint256",
          "name": "value",
          "type": "uint256"
        }
      ],
      "name": "Burn",
      "type": "event"
    },
    {
      "anonymous": false,
      "inputs": [
        {
          "indexed": true,
          "internalType": "address",
          "name": "from",
          "type": "address"
        },
        {
          "indexed": true,
          "internalType": "address",
          "name": "to",
          "type": "address"
        },
        {
          "indexed": false,
          "internalType": "uint256",
          "name": "value",
          "type": "uint256"
        }
      ],
      "name": "Transfer",
      "type": "event"
    },
    {
      "inputs": [
        {
          "internalType": "address",
          "name": "",
          "type": "address"
        },
        {
          "internalType": "address",
          "name": "",
          "type": "address"
        }
      ],
      "name": "allowance",
      "outputs": [
        {
          "internalType": "uint256",
          "name": "",
          "type": "uint256"
        }
      ],
      "stateMutability": "view",
      "type": "function",
      "constant": true
    },
    {
      "inputs": [
        {
          "internalType": "address",
          "name": "_spender",
          "type": "address"
        },
        {
          "internalType": "uint256",
          "name": "_value",
          "type": "uint256"
        }
      ],
      "name": "approve",
      "outputs": [
        {
          "internalType": "bool",
          "name": "success",
          "type": "bool"
        }
      ],
      "stateMutability": "nonpayable",
      "type": "function"
    },
    {
      "inputs": [
        {
          "internalType": "address",
          "name": "",
          "type": "address"
        }
      ],
      "name": "balanceOf",
      "outputs": [
        {
          "internalType": "uint256",
          "name": "",
          "type": "uint256"
        }
      ],
      "stateMutability": "view",
      "type": "function",
      "constant": true
    },
    {
      "inputs": [],
      "name": "decimals",
      "outputs": [
        {
          "internalType": "uint8",
          "name": "",
          "type": "uint8"
        }
      ],
      "stateMutability": "view",
      "type": "function",
      "constant": true
    },
    {
      "inputs": [],
      "name": "name",
      "outputs": [
        {
          "internalType": "string",
          "name": "",
          "type": "string"
        }
      ],
      "stateMutability": "view",
      "type": "function",
      "constant": true
    },
    {
      "inputs": [],
      "name": "symbol",
      "outputs": [
        {
          "internalType": "string",
          "name": "",
          "type": "string"
        }
      ],
      "stateMutability": "view",
      "type": "function",
      "constant": true
    },
    {
      "inputs": [],
      "name": "totalSupply",
      "outputs": [
        {
          "internalType": "uint256",
          "name": "",
          "type": "uint256"
        }
      ],
      "stateMutability": "view",
      "type": "function",
      "constant": true
    },
    {
      "inputs": [
        {
          "internalType": "address",
          "name": "_to",
          "type": "address"
        },
        {
          "internalType": "uint256",
          "name": "_value",
          "type": "uint256"
        }
      ],
      "name": "transfer",
      "outputs": [
        {
          "internalType": "bool",
          "name": "success",
          "type": "bool"
        }
      ],
      "stateMutability": "nonpayable",
      "type": "function"
    },
    {
      "inputs": [
        {
          "internalType": "address",
          "name": "_from",
          "type": "address"
        },
        {
          "internalType": "address",
          "name": "_to",
          "type": "address"
        },
        {
          "internalType": "uint256",
          "name": "_value",
          "type": "uint256"
        }
      ],
      "name": "transferFrom",
      "outputs": [
        {
          "internalType": "bool",
          "name": "success",
          "type": "bool"
        }
      ],
      "stateMutability": "nonpayable",
      "type": "function"
    },
    {
      "inputs": [
        {
          "internalType": "uint256",
          "name": "_value",
          "type": "uint256"
        }
      ],
      "name": "burn",
      "outputs": [],
      "stateMutability": "nonpayable",
      "type": "function"
    }
  ],
  "bytecode": "0x60806040526040518060400160405280600a81526020017f4261736963546f6b656e00000000000000000000000000000000000000000000815250600090805190602001906200005192919062000145565b506040518060400160405280600381526020017f4253430000000000000000000000000000000000000000000000000000000000815250600190805190602001906200009f92919062000145565b506012600260006101000a81548160ff021916908360ff160217905550348015620000c957600080fd5b506040516200129e3803806200129e8339818101604052810190620000ef91906200020c565b8080600381905550600354600460003373ffffffffffffffffffffffffffffffffffffffff1673ffffffffffffffffffffffffffffffffffffffff168152602001908152602001600020819055505050620002c1565b828054620001539062000242565b90600052602060002090601f016020900481019282620001775760008555620001c3565b82601f106200019257805160ff1916838001178555620001c3565b82800160010185558215620001c3579182015b82811115620001c2578251825591602001919060010190620001a5565b5b509050620001d29190620001d6565b5090565b5b80821115620001f1576000816000905550600101620001d7565b5090565b6000815190506200020681620002a7565b92915050565b6000602082840312156200021f57600080fd5b60006200022f84828501620001f5565b91505092915050565b6000819050919050565b600060028204905060018216806200025b57607f821691505b6020821081141562000272576200027162000278565b5b50919050565b7f4e487b7100000000000000000000000000000000000000000000000000000000600052602260045260246000fd5b620002b28162000238565b8114620002be57600080fd5b50565b610fcd80620002d16000396000f3fe608060405234801561001057600080fd5b506004361061009e5760003560e01c806342966c681161006657806342966c681461015d57806370a082311461017957806395d89b41146101a9578063a9059cbb146101c7578063dd62ed3e146101f75761009e565b806306fdde03146100a3578063095ea7b3146100c157806318160ddd146100f157806323b872dd1461010f578063313ce5671461013f575b600080fd5b6100ab610227565b6040516100b89190610ce2565b60405180910390f35b6100db60048036038101906100d69190610b3c565b6102b5565b6040516100e89190610cc7565b60405180910390f35b6100f96103a7565b6040516101069190610d64565b60405180910390f35b61012960048036038101906101249190610aed565b6103ad565b6040516101369190610cc7565b60405180910390f35b61014761069f565b6040516101549190610d7f565b60405180910390f35b61017760048036038101906101729190610b78565b6106b2565b005b610193600480360381019061018e9190610a88565b6107f4565b6040516101a09190610d64565b60405180910390f35b6101b161080c565b6040516101be9190610ce2565b60405180910390f35b6101e160048036038101906101dc9190610b3c565b61089a565b6040516101ee9190610cc7565b60405180910390f35b610211600480360381019061020c9190610ab1565b610a39565b60405161021e9190610d64565b60405180910390f35b6000805461023490610ec8565b80601f016020809104026020016040519081016040528092919081815260200182805461026090610ec8565b80156102ad5780601f10610282576101008083540402835291602001916102ad565b820191906000526020600020905b81548152906001019060200180831161029057829003601f168201915b505050505081565b600081600560003373ffffffffffffffffffffffffffffffffffffffff1673ffffffffffffffffffffffffffffffffffffffff16815260200190815260200160002060008573ffffffffffffffffffffffffffffffffffffffff1673ffffffffffffffffffffffffffffffffffffffff168152602001908152602001600020819055508273ffffffffffffffffffffffffffffffffffffffff163373ffffffffffffffffffffffffffffffffffffffff167f8c5be1e5ebec7d5bd14f71427d1e84f3dd0314c0f7b2291e5b200ac8c7c3b925846040516103959190610d64565b60405180910390a36001905092915050565b60035481565b6000600460008573ffffffffffffffffffffffffffffffffffffffff1673ffffffffffffffffffffffffffffffffffffffff16815260200190815260200160002054821115610431576040517f08c379a000000000000000000000000000000000000000000000000000000000815260040161042890610d24565b60405180910390fd5b600560008573ffffffffffffffffffffffffffffffffffffffff1673ffffffffffffffffffffffffffffffffffffffff16815260200190815260200160002060003373ffffffffffffffffffffffffffffffffffffffff1673ffffffffffffffffffffffffffffffffffffffff168152602001908152602001600020548211156104f0576040517f08c379a00000000000000000000000000000000000000000000000000000000081526004016104e790610d04565b60405180910390fd5b81600460008673ffffffffffffffffffffffffffffffffffffffff1673ffffffffffffffffffffffffffffffffffffffff168152602001908152602001600020600082825461053f9190610e0c565b9250508190555081600460008573ffffffffffffffffffffffffffffffffffffffff1673ffffffffffffffffffffffffffffffffffffffff16815260200190815260200160002060008282546105959190610db6565b9250508190555081600560008673ffffffffffffffffffffffffffffffffffffffff1673ffffffffffffffffffffffffffffffffffffffff16815260200190815260200160002060003373ffffffffffffffffffffffffffffffffffffffff1673ffffffffffffffffffffffffffffffffffffffff16815260200190815260200160002060008282546106289190610e0c565b925050819055508273ffffffffffffffffffffffffffffffffffffffff168473ffffffffffffffffffffffffffffffffffffffff167fddf252ad1be2c89b69c2b068fc378daa952ba7f163c4a11628f55a4df523b3ef8460405161068c9190610d64565b60405180910390a3600190509392505050565b600260009054906101000a900460ff1681565b80600460003373ffffffffffffffffffffffffffffffffffffffff1673ffffffffffffffffffffffffffffffffffffffff168152602001908152602001600020541015610734576040517f08c379a000000000000000000000000000000000000000000000000000000000815260040161072b90610d44565b60405180910390fd5b80600460003373ffffffffffffffffffffffffffffffffffffffff1673ffffffffffffffffffffffffffffffffffffffff16815260200190815260200160002060008282546107839190610e0c565b92505081905550806003600082825461079c9190610e0c565b925050819055503373ffffffffffffffffffffffffffffffffffffffff167fcc16f5dbb4873280815c1ee09dbd06736cffcc184412cf7a71a0fdb75d397ca5826040516107e99190610d64565b60405180910390a250565b60046020528060005260406000206000915090505481565b6001805461081990610ec8565b80601f016020809104026020016040519081016040528092919081815260200182805461084590610ec8565b80156108925780601f1061086757610100808354040283529160200191610892565b820191906000526020600020905b81548152906001019060200180831161087557829003601f168201915b505050505081565b600081600460003373ffffffffffffffffffffffffffffffffffffffff1673ffffffffffffffffffffffffffffffffffffffff16815260200190815260200160002054101561091e576040517f08c379a000000000000000000000000000000000000000000000000000000000815260040161091590610d24565b60405180910390fd5b81600460003373ffffffffffffffffffffffffffffffffffffffff1673ffffffffffffffffffffffffffffffffffffffff168152602001908152602001600020600082825461096d9190610e0c565b9250508190555081600460008573ffffffffffffffffffffffffffffffffffffffff1673ffffffffffffffffffffffffffffffffffffffff16815260200190815260200160002060008282546109c39190610db6565b925050819055508273ffffffffffffffffffffffffffffffffffffffff163373ffffffffffffffffffffffffffffffffffffffff167fddf252ad1be2c89b69c2b068fc378daa952ba7f163c4a11628f55a4df523b3ef84604051610a279190610d64565b60405180910390a36001905092915050565b6005602052816000526040600020602052806000526040600020600091509150505481565b600081359050610a6d81610f69565b92915050565b600081359050610a8281610f80565b92915050565b600060208284031215610a9a57600080fd5b6000610aa884828501610a5e565b91505092915050565b60008060408385031215610ac457600080fd5b6000610ad285828601610a5e565b9250506020610ae385828601610a5e565b9150509250929050565b600080600060608486031215610b0257600080fd5b6000610b1086828701610a5e565b9350506020610b2186828701610a5e565b9250506040610b3286828701610a73565b9150509250925092565b60008060408385031215610b4f57600080fd5b6000610b5d85828601610a5e565b9250506020610b6e85828601610a73565b9150509250929050565b600060208284031215610b8a57600080fd5b6000610b9884828501610a73565b91505092915050565b610baa81610e52565b82525050565b6000610bbb82610d9a565b610bc58185610da5565b9350610bd5818560208601610e95565b610bde81610f58565b840191505092915050565b6000610bf6601283610da5565b91507f416c6c6f77616e636520657863656564656400000000000000000000000000006000830152602082019050919050565b6000610c36601483610da5565b91507f496e73756666696369656e742062616c616e63650000000000000000000000006000830152602082019050919050565b6000610c76601c83610da5565b91507f496e73756666696369656e742062616c616e636520746f206275726e000000006000830152602082019050919050565b610cb281610e7e565b82525050565b610cc181610e88565b82525050565b6000602082019050610cdc6000830184610ba1565b92915050565b60006020820190508181036000830152610cfc8184610bb0565b905092915050565b60006020820190508181036000830152610d1d81610be9565b9050919050565b60006020820190508181036000830152610d3d81610c29565b9050919050565b60006020820190508181036000830152610d5d81610c69565b9050919050565b6000602082019050610d796000830184610ca9565b92915050565b6000602082019050610d946000830184610cb8565b92915050565b600081519050919050565b600082825260208201905092915050565b6000610dc182610e7e565b9150610dcc83610e7e565b9250827fffffffffffffffffffffffffffffffffffffffffffffffffffffffffffffffff03821115610e0157610e00610efa565b5b828201905092915050565b6000610e1782610e7e565b9150610e2283610e7e565b925082821015610e3557610e34610efa565b5b828203905092915050565b6000610e4b82610e5e565b9050919050565b60008115159050919050565b600073ffffffffffffffffffffffffffffffffffffffff82169050919050565b6000819050919050565b600060ff82169050919050565b60005b83811015610eb3578082015181840152602081019050610e98565b83811115610ec2576000848401525b50505050565b60006002820490506001821680610ee057607f821691505b60208210811415610ef457610ef3610f29565b5b50919050565b7f4e487b7100000000000000000000000000000000000000000000000000000000600052601160045260246000fd5b7f4e487b7100000000000000000000000000000000000000000000000000000000600052602260045260246000fd5b6000601f19601f8301169050919050565b610f7281610e40565b8114610f7d57600080fd5b50565b610f8981610e7e565b8114610f9457600080fd5b5056fea26469706673582212207c195a3993ff5cd860019830796f50f99b276b84efedef338d78c3c7cbf1555c64736f6c63430008000033",
  "immutableReferences": {},
  "source": "// contracts/BasicERC20BurnableToken.sol\n\n// SPDX-License-Identifier: MIT\npragma solidity ^0.8.0;\n\nimport \"./BasicERC20Token.sol\";\n\ncontract BasicERC20BurnableToken is BasicERC20Token {\n\n    event Burn(address indexed burner, uint256 value);\n\n    constructor(uint256 initialSupply) BasicERC20Token(initialSupply) {}\n\n    function burn(uint256 _value) public {\n        require(balanceOf[msg.sender] >= _value, \"Insufficient balance to burn\");\n        balanceOf[msg.sender] -= _value;\n        totalSupply -= _value;\n        emit Burn(msg.sender, _value);\n    }\n}\n",
  "sourcePath": "/home/ruhul/Projects/truffle/erc20-library/contracts/BasicERC20BurnableToken.sol",
  "compiler": {
    "name": "solc",
    "version": "0.8.0+commit.c7dfd78e.Emscripten.clang"
  },
  "schemaVersion": "3.4.16",
  "updatedAt": "2024-06-04T05:31:52.815Z",
  "networkType": "ethereum",
  "devdoc": {
    "kind": "dev",
    "methods": {},
    "version": 1
  },
  "userdoc": {
    "kind": "user",
    "methods": {},
    "version": 1
  }
}